{
  "contractName": "ERC721Mintable",
  "abi": [
    {
      "constant": true,
      "inputs": [
        {
          "name": "interfaceId",
          "type": "bytes4"
        }
      ],
      "name": "supportsInterface",
      "outputs": [
        {
          "name": "",
          "type": "bool"
        }
      ],
      "payable": false,
      "stateMutability": "view",
      "type": "function"
    },
    {
      "constant": true,
      "inputs": [
        {
          "name": "tokenId",
          "type": "uint256"
        }
      ],
      "name": "getApproved",
      "outputs": [
        {
          "name": "",
          "type": "address"
        }
      ],
      "payable": false,
      "stateMutability": "view",
      "type": "function"
    },
    {
      "constant": false,
      "inputs": [
        {
          "name": "to",
          "type": "address"
        },
        {
          "name": "tokenId",
          "type": "uint256"
        }
      ],
      "name": "approve",
      "outputs": [],
      "payable": false,
      "stateMutability": "nonpayable",
      "type": "function"
    },
    {
      "constant": false,
      "inputs": [
        {
          "name": "from",
          "type": "address"
        },
        {
          "name": "to",
          "type": "address"
        },
        {
          "name": "tokenId",
          "type": "uint256"
        }
      ],
      "name": "transferFrom",
      "outputs": [],
      "payable": false,
      "stateMutability": "nonpayable",
      "type": "function"
    },
    {
      "constant": false,
      "inputs": [
        {
          "name": "from",
          "type": "address"
        },
        {
          "name": "to",
          "type": "address"
        },
        {
          "name": "tokenId",
          "type": "uint256"
        }
      ],
      "name": "safeTransferFrom",
      "outputs": [],
      "payable": false,
      "stateMutability": "nonpayable",
      "type": "function"
    },
    {
      "constant": true,
      "inputs": [
        {
          "name": "tokenId",
          "type": "uint256"
        }
      ],
      "name": "ownerOf",
      "outputs": [
        {
          "name": "",
          "type": "address"
        }
      ],
      "payable": false,
      "stateMutability": "view",
      "type": "function"
    },
    {
      "constant": true,
      "inputs": [
        {
          "name": "owner",
          "type": "address"
        }
      ],
      "name": "balanceOf",
      "outputs": [
        {
          "name": "",
          "type": "uint256"
        }
      ],
      "payable": false,
      "stateMutability": "view",
      "type": "function"
    },
    {
      "constant": false,
      "inputs": [
        {
          "name": "account",
          "type": "address"
        }
      ],
      "name": "addMinter",
      "outputs": [],
      "payable": false,
      "stateMutability": "nonpayable",
      "type": "function"
    },
    {
      "constant": false,
      "inputs": [],
      "name": "renounceMinter",
      "outputs": [],
      "payable": false,
      "stateMutability": "nonpayable",
      "type": "function"
    },
    {
      "constant": false,
      "inputs": [
        {
          "name": "to",
          "type": "address"
        },
        {
          "name": "approved",
          "type": "bool"
        }
      ],
      "name": "setApprovalForAll",
      "outputs": [],
      "payable": false,
      "stateMutability": "nonpayable",
      "type": "function"
    },
    {
      "constant": true,
      "inputs": [
        {
          "name": "account",
          "type": "address"
        }
      ],
      "name": "isMinter",
      "outputs": [
        {
          "name": "",
          "type": "bool"
        }
      ],
      "payable": false,
      "stateMutability": "view",
      "type": "function"
    },
    {
      "constant": false,
      "inputs": [
        {
          "name": "from",
          "type": "address"
        },
        {
          "name": "to",
          "type": "address"
        },
        {
          "name": "tokenId",
          "type": "uint256"
        },
        {
          "name": "_data",
          "type": "bytes"
        }
      ],
      "name": "safeTransferFrom",
      "outputs": [],
      "payable": false,
      "stateMutability": "nonpayable",
      "type": "function"
    },
    {
      "constant": true,
      "inputs": [
        {
          "name": "owner",
          "type": "address"
        },
        {
          "name": "operator",
          "type": "address"
        }
      ],
      "name": "isApprovedForAll",
      "outputs": [
        {
          "name": "",
          "type": "bool"
        }
      ],
      "payable": false,
      "stateMutability": "view",
      "type": "function"
    },
    {
      "anonymous": false,
      "inputs": [
        {
          "indexed": true,
          "name": "account",
          "type": "address"
        }
      ],
      "name": "MinterAdded",
      "type": "event"
    },
    {
      "anonymous": false,
      "inputs": [
        {
          "indexed": true,
          "name": "account",
          "type": "address"
        }
      ],
      "name": "MinterRemoved",
      "type": "event"
    },
    {
      "anonymous": false,
      "inputs": [
        {
          "indexed": true,
          "name": "from",
          "type": "address"
        },
        {
          "indexed": true,
          "name": "to",
          "type": "address"
        },
        {
          "indexed": true,
          "name": "tokenId",
          "type": "uint256"
        }
      ],
      "name": "Transfer",
      "type": "event"
    },
    {
      "anonymous": false,
      "inputs": [
        {
          "indexed": true,
          "name": "owner",
          "type": "address"
        },
        {
          "indexed": true,
          "name": "approved",
          "type": "address"
        },
        {
          "indexed": true,
          "name": "tokenId",
          "type": "uint256"
        }
      ],
      "name": "Approval",
      "type": "event"
    },
    {
      "anonymous": false,
      "inputs": [
        {
          "indexed": true,
          "name": "owner",
          "type": "address"
        },
        {
          "indexed": true,
          "name": "operator",
          "type": "address"
        },
        {
          "indexed": false,
          "name": "approved",
          "type": "bool"
        }
      ],
      "name": "ApprovalForAll",
      "type": "event"
    },
    {
      "constant": false,
      "inputs": [
        {
          "name": "to",
          "type": "address"
        },
        {
          "name": "tokenId",
          "type": "uint256"
        }
      ],
      "name": "mint",
      "outputs": [
        {
          "name": "",
          "type": "bool"
        }
      ],
      "payable": false,
      "stateMutability": "nonpayable",
      "type": "function"
    },
    {
      "constant": false,
      "inputs": [
        {
          "name": "to",
          "type": "address"
        },
        {
          "name": "tokenId",
          "type": "uint256"
        },
        {
          "name": "_data",
          "type": "bytes"
        }
      ],
      "name": "safeMint",
      "outputs": [
        {
          "name": "",
          "type": "bool"
        }
      ],
      "payable": false,
      "stateMutability": "nonpayable",
      "type": "function"
    },
    {
      "constant": false,
      "inputs": [
        {
          "name": "to",
          "type": "address"
        },
        {
          "name": "tokenId",
          "type": "uint256"
        }
      ],
      "name": "safeMint",
      "outputs": [
        {
          "name": "",
          "type": "bool"
        }
      ],
      "payable": false,
      "stateMutability": "nonpayable",
      "type": "function"
    }
  ],
  "bytecode": "0x6080604052620000416301ffc9a77c010000000000000000000000000000000000000000000000000000000002620000b6640100000000026401000000009004565b6200007e6380ac58cd7c010000000000000000000000000000000000000000000000000000000002620000b6640100000000026401000000009004565b620000b06200009b620001dd640100000000026401000000009004565b620001e5640100000000026401000000009004565b62000462565b63ffffffff7c010000000000000000000000000000000000000000000000000000000002817bffffffffffffffffffffffffffffffffffffffffffffffffffffffff19161415151562000171576040517f08c379a000000000000000000000000000000000000000000000000000000000815260040180806020018281038252601c8152602001807f4552433136353a20696e76616c696420696e746572666163652069640000000081525060200191505060405180910390fd5b6001600080837bffffffffffffffffffffffffffffffffffffffffffffffffffffffff19167bffffffffffffffffffffffffffffffffffffffffffffffffffffffff1916815260200190815260200160002060006101000a81548160ff02191690831515021790555050565b600033905090565b620002098160056200024f64010000000002620022f7179091906401000000009004565b8073ffffffffffffffffffffffffffffffffffffffff167f6ae172837ea30b801fbfcdd4108aa1d5bf8ff775444fd70256b44e6bf3dfc3f660405160405180910390a250565b6200026a82826200033e640100000000026401000000009004565b151515620002e0576040517f08c379a000000000000000000000000000000000000000000000000000000000815260040180806020018281038252601f8152602001807f526f6c65733a206163636f756e7420616c72656164792068617320726f6c650081525060200191505060405180910390fd5b60018260000160008373ffffffffffffffffffffffffffffffffffffffff1673ffffffffffffffffffffffffffffffffffffffff16815260200190815260200160002060006101000a81548160ff0219169083151502179055505050565b60008073ffffffffffffffffffffffffffffffffffffffff168273ffffffffffffffffffffffffffffffffffffffff16141515156200040b576040517f08c379a00000000000000000000000000000000000000000000000000000000081526004018080602001828103825260228152602001807f526f6c65733a206163636f756e7420697320746865207a65726f20616464726581526020017f737300000000000000000000000000000000000000000000000000000000000081525060400191505060405180910390fd5b8260000160008373ffffffffffffffffffffffffffffffffffffffff1673ffffffffffffffffffffffffffffffffffffffff16815260200190815260200160002060009054906101000a900460ff16905092915050565b61265a80620004726000396000f3fe6080604052600436106100e6576000357c0100000000000000000000000000000000000000000000000000000000900463ffffffff16806301ffc9a7146100eb578063081812fc1461015d578063095ea7b3146101d857806323b872dd1461023357806340c10f19146102ae57806342842e0e146103215780636352211e1461039c57806370a08231146104175780638832e6e31461047c578063983b2d561461058657806398650275146105d7578063a1448194146105ee578063a22cb46514610661578063aa271e1a146106be578063b88d4fde14610727578063e985e9c514610839575b600080fd5b3480156100f757600080fd5b506101436004803603602081101561010e57600080fd5b8101908080357bffffffffffffffffffffffffffffffffffffffffffffffffffffffff191690602001909291905050506108c2565b604051808215151515815260200191505060405180910390f35b34801561016957600080fd5b506101966004803603602081101561018057600080fd5b8101908080359060200190929190505050610929565b604051808273ffffffffffffffffffffffffffffffffffffffff1673ffffffffffffffffffffffffffffffffffffffff16815260200191505060405180910390f35b3480156101e457600080fd5b50610231600480360360408110156101fb57600080fd5b81019080803573ffffffffffffffffffffffffffffffffffffffff16906020019092919080359060200190929190505050610a09565b005b34801561023f57600080fd5b506102ac6004803603606081101561025657600080fd5b81019080803573ffffffffffffffffffffffffffffffffffffffff169060200190929190803573ffffffffffffffffffffffffffffffffffffffff16906020019092919080359060200190929190505050610c7a565b005b3480156102ba57600080fd5b50610307600480360360408110156102d157600080fd5b81019080803573ffffffffffffffffffffffffffffffffffffffff16906020019092919080359060200190929190505050610d35565b604051808215151515815260200191505060405180910390f35b34801561032d57600080fd5b5061039a6004803603606081101561034457600080fd5b81019080803573ffffffffffffffffffffffffffffffffffffffff169060200190929190803573ffffffffffffffffffffffffffffffffffffffff16906020019092919080359060200190929190505050610df5565b005b3480156103a857600080fd5b506103d5600480360360208110156103bf57600080fd5b8101908080359060200190929190505050610e16565b604051808273ffffffffffffffffffffffffffffffffffffffff1673ffffffffffffffffffffffffffffffffffffffff16815260200191505060405180910390f35b34801561042357600080fd5b506104666004803603602081101561043a57600080fd5b81019080803573ffffffffffffffffffffffffffffffffffffffff169060200190929190505050610f23565b6040518082815260200191505060405180910390f35b34801561048857600080fd5b5061056c6004803603606081101561049f57600080fd5b81019080803573ffffffffffffffffffffffffffffffffffffffff16906020019092919080359060200190929190803590602001906401000000008111156104e657600080fd5b8201836020820111156104f857600080fd5b8035906020019184600183028401116401000000008311171561051a57600080fd5b91908080601f016020809104026020016040519081016040528093929190818152602001838380828437600081840152601f19601f82011690508083019250505050505050919291929050505061103d565b604051808215151515815260200191505060405180910390f35b34801561059257600080fd5b506105d5600480360360208110156105a957600080fd5b81019080803573ffffffffffffffffffffffffffffffffffffffff1690602001909291905050506110ff565b005b3480156105e357600080fd5b506105ec6111b5565b005b3480156105fa57600080fd5b506106476004803603604081101561061157600080fd5b81019080803573ffffffffffffffffffffffffffffffffffffffff169060200190929190803590602001909291905050506111c7565b604051808215151515815260200191505060405180910390f35b34801561066d57600080fd5b506106bc6004803603604081101561068457600080fd5b81019080803573ffffffffffffffffffffffffffffffffffffffff169060200190929190803515159060200190929190505050611287565b005b3480156106ca57600080fd5b5061070d600480360360208110156106e157600080fd5b81019080803573ffffffffffffffffffffffffffffffffffffffff169060200190929190505050611441565b604051808215151515815260200191505060405180910390f35b34801561073357600080fd5b506108376004803603608081101561074a57600080fd5b81019080803573ffffffffffffffffffffffffffffffffffffffff169060200190929190803573ffffffffffffffffffffffffffffffffffffffff16906020019092919080359060200190929190803590602001906401000000008111156107b157600080fd5b8201836020820111156107c357600080fd5b803590602001918460018302840111640100000000831117156107e557600080fd5b91908080601f016020809104026020016040519081016040528093929190818152602001838380828437600081840152601f19601f82011690508083019250505050505050919291929050505061145e565b005b34801561084557600080fd5b506108a86004803603604081101561085c57600080fd5b81019080803573ffffffffffffffffffffffffffffffffffffffff169060200190929190803573ffffffffffffffffffffffffffffffffffffffff16906020019092919050505061151b565b604051808215151515815260200191505060405180910390f35b6000806000837bffffffffffffffffffffffffffffffffffffffffffffffffffffffff19167bffffffffffffffffffffffffffffffffffffffffffffffffffffffff1916815260200190815260200160002060009054906101000a900460ff169050919050565b6000610934826115af565b15156109ce576040517f08c379a000000000000000000000000000000000000000000000000000000000815260040180806020018281038252602c8152602001807f4552433732313a20617070726f76656420717565727920666f72206e6f6e657881526020017f697374656e7420746f6b656e000000000000000000000000000000000000000081525060400191505060405180910390fd5b6002600083815260200190815260200160002060009054906101000a900473ffffffffffffffffffffffffffffffffffffffff169050919050565b6000610a1482610e16565b90508073ffffffffffffffffffffffffffffffffffffffff168373ffffffffffffffffffffffffffffffffffffffff1614151515610ae0576040517f08c379a00000000000000000000000000000000000000000000000000000000081526004018080602001828103825260218152602001807f4552433732313a20617070726f76616c20746f2063757272656e74206f776e6581526020017f720000000000000000000000000000000000000000000000000000000000000081525060400191505060405180910390fd5b8073ffffffffffffffffffffffffffffffffffffffff16610aff611621565b73ffffffffffffffffffffffffffffffffffffffff161480610b2e5750610b2d81610b28611621565b61151b565b5b1515610bc8576040517f08c379a00000000000000000000000000000000000000000000000000000000081526004018080602001828103825260388152602001807f4552433732313a20617070726f76652063616c6c6572206973206e6f74206f7781526020017f6e6572206e6f7220617070726f76656420666f7220616c6c000000000000000081525060400191505060405180910390fd5b826002600084815260200190815260200160002060006101000a81548173ffffffffffffffffffffffffffffffffffffffff021916908373ffffffffffffffffffffffffffffffffffffffff160217905550818373ffffffffffffffffffffffffffffffffffffffff168273ffffffffffffffffffffffffffffffffffffffff167f8c5be1e5ebec7d5bd14f71427d1e84f3dd0314c0f7b2291e5b200ac8c7c3b92560405160405180910390a4505050565b610c8b610c85611621565b82611629565b1515610d25576040517f08c379a00000000000000000000000000000000000000000000000000000000081526004018080602001828103825260318152602001807f4552433732313a207472616e736665722063616c6c6572206973206e6f74206f81526020017f776e6572206e6f7220617070726f76656400000000000000000000000000000081525060400191505060405180910390fd5b610d30838383611762565b505050565b6000610d47610d42611621565b611441565b1515610de1576040517f08c379a00000000000000000000000000000000000000000000000000000000081526004018080602001828103825260308152602001807f4d696e746572526f6c653a2063616c6c657220646f6573206e6f74206861766581526020017f20746865204d696e74657220726f6c650000000000000000000000000000000081525060400191505060405180910390fd5b610deb8383611a47565b6001905092915050565b610e11838383602060405190810160405280600081525061145e565b505050565b6000806001600084815260200190815260200160002060009054906101000a900473ffffffffffffffffffffffffffffffffffffffff169050600073ffffffffffffffffffffffffffffffffffffffff168173ffffffffffffffffffffffffffffffffffffffff1614151515610f1a576040517f08c379a00000000000000000000000000000000000000000000000000000000081526004018080602001828103825260298152602001807f4552433732313a206f776e657220717565727920666f72206e6f6e657869737481526020017f656e7420746f6b656e000000000000000000000000000000000000000000000081525060400191505060405180910390fd5b80915050919050565b60008073ffffffffffffffffffffffffffffffffffffffff168273ffffffffffffffffffffffffffffffffffffffff1614151515610fef576040517f08c379a000000000000000000000000000000000000000000000000000000000815260040180806020018281038252602a8152602001807f4552433732313a2062616c616e636520717565727920666f7220746865207a6581526020017f726f20616464726573730000000000000000000000000000000000000000000081525060400191505060405180910390fd5b611036600360008473ffffffffffffffffffffffffffffffffffffffff1673ffffffffffffffffffffffffffffffffffffffff168152602001908152602001600020611c63565b9050919050565b600061104f61104a611621565b611441565b15156110e9576040517f08c379a00000000000000000000000000000000000000000000000000000000081526004018080602001828103825260308152602001807f4d696e746572526f6c653a2063616c6c657220646f6573206e6f74206861766581526020017f20746865204d696e74657220726f6c650000000000000000000000000000000081525060400191505060405180910390fd5b6110f4848484611c71565b600190509392505050565b61110f61110a611621565b611441565b15156111a9576040517f08c379a00000000000000000000000000000000000000000000000000000000081526004018080602001828103825260308152602001807f4d696e746572526f6c653a2063616c6c657220646f6573206e6f74206861766581526020017f20746865204d696e74657220726f6c650000000000000000000000000000000081525060400191505060405180910390fd5b6111b281611d27565b50565b6111c56111c0611621565b611d81565b565b60006111d96111d4611621565b611441565b1515611273576040517f08c379a00000000000000000000000000000000000000000000000000000000081526004018080602001828103825260308152602001807f4d696e746572526f6c653a2063616c6c657220646f6573206e6f74206861766581526020017f20746865204d696e74657220726f6c650000000000000000000000000000000081525060400191505060405180910390fd5b61127d8383611ddb565b6001905092915050565b61128f611621565b73ffffffffffffffffffffffffffffffffffffffff168273ffffffffffffffffffffffffffffffffffffffff1614151515611332576040517f08c379a00000000000000000000000000000000000000000000000000000000081526004018080602001828103825260198152602001807f4552433732313a20617070726f766520746f2063616c6c65720000000000000081525060200191505060405180910390fd5b806004600061133f611621565b73ffffffffffffffffffffffffffffffffffffffff1673ffffffffffffffffffffffffffffffffffffffff16815260200190815260200160002060008473ffffffffffffffffffffffffffffffffffffffff1673ffffffffffffffffffffffffffffffffffffffff16815260200190815260200160002060006101000a81548160ff0219169083151502179055508173ffffffffffffffffffffffffffffffffffffffff166113ec611621565b73ffffffffffffffffffffffffffffffffffffffff167f17307eab39ab6107e8899845ad3d59bd9653f200f220920489ca2b5937696c3183604051808215151515815260200191505060405180910390a35050565b6000611457826005611dfa90919063ffffffff16565b9050919050565b61146f611469611621565b83611629565b1515611509576040517f08c379a00000000000000000000000000000000000000000000000000000000081526004018080602001828103825260318152602001807f4552433732313a207472616e736665722063616c6c6572206973206e6f74206f81526020017f776e6572206e6f7220617070726f76656400000000000000000000000000000081525060400191505060405180910390fd5b61151584848484611f1d565b50505050565b6000600460008473ffffffffffffffffffffffffffffffffffffffff1673ffffffffffffffffffffffffffffffffffffffff16815260200190815260200160002060008373ffffffffffffffffffffffffffffffffffffffff1673ffffffffffffffffffffffffffffffffffffffff16815260200190815260200160002060009054906101000a900460ff16905092915050565b6000806001600084815260200190815260200160002060009054906101000a900473ffffffffffffffffffffffffffffffffffffffff169050600073ffffffffffffffffffffffffffffffffffffffff168173ffffffffffffffffffffffffffffffffffffffff161415915050919050565b600033905090565b6000611634826115af565b15156116ce576040517f08c379a000000000000000000000000000000000000000000000000000000000815260040180806020018281038252602c8152602001807f4552433732313a206f70657261746f7220717565727920666f72206e6f6e657881526020017f697374656e7420746f6b656e000000000000000000000000000000000000000081525060400191505060405180910390fd5b60006116d983610e16565b90508073ffffffffffffffffffffffffffffffffffffffff168473ffffffffffffffffffffffffffffffffffffffff16148061174857508373ffffffffffffffffffffffffffffffffffffffff1661173084610929565b73ffffffffffffffffffffffffffffffffffffffff16145b806117595750611758818561151b565b5b91505092915050565b8273ffffffffffffffffffffffffffffffffffffffff1661178282610e16565b73ffffffffffffffffffffffffffffffffffffffff16141515611833576040517f08c379a00000000000000000000000000000000000000000000000000000000081526004018080602001828103825260298152602001807f4552433732313a207472616e73666572206f6620746f6b656e2074686174206981526020017f73206e6f74206f776e000000000000000000000000000000000000000000000081525060400191505060405180910390fd5b600073ffffffffffffffffffffffffffffffffffffffff168273ffffffffffffffffffffffffffffffffffffffff16141515156118fe576040517f08c379a00000000000000000000000000000000000000000000000000000000081526004018080602001828103825260248152602001807f4552433732313a207472616e7366657220746f20746865207a65726f2061646481526020017f726573730000000000000000000000000000000000000000000000000000000081525060400191505060405180910390fd5b61190781611fd4565b61194e600360008573ffffffffffffffffffffffffffffffffffffffff1673ffffffffffffffffffffffffffffffffffffffff168152602001908152602001600020612094565b611995600360008473ffffffffffffffffffffffffffffffffffffffff1673ffffffffffffffffffffffffffffffffffffffff1681526020019081526020016000206120b7565b816001600083815260200190815260200160002060006101000a81548173ffffffffffffffffffffffffffffffffffffffff021916908373ffffffffffffffffffffffffffffffffffffffff160217905550808273ffffffffffffffffffffffffffffffffffffffff168473ffffffffffffffffffffffffffffffffffffffff167fddf252ad1be2c89b69c2b068fc378daa952ba7f163c4a11628f55a4df523b3ef60405160405180910390a4505050565b600073ffffffffffffffffffffffffffffffffffffffff168273ffffffffffffffffffffffffffffffffffffffff1614151515611aec576040517f08c379a00000000000000000000000000000000000000000000000000000000081526004018080602001828103825260208152602001807f4552433732313a206d696e7420746f20746865207a65726f206164647265737381525060200191505060405180910390fd5b611af5816115af565b151515611b6a576040517f08c379a000000000000000000000000000000000000000000000000000000000815260040180806020018281038252601c8152602001807f4552433732313a20746f6b656e20616c7265616479206d696e7465640000000081525060200191505060405180910390fd5b816001600083815260200190815260200160002060006101000a81548173ffffffffffffffffffffffffffffffffffffffff021916908373ffffffffffffffffffffffffffffffffffffffff160217905550611c03600360008473ffffffffffffffffffffffffffffffffffffffff1673ffffffffffffffffffffffffffffffffffffffff1681526020019081526020016000206120b7565b808273ffffffffffffffffffffffffffffffffffffffff16600073ffffffffffffffffffffffffffffffffffffffff167fddf252ad1be2c89b69c2b068fc378daa952ba7f163c4a11628f55a4df523b3ef60405160405180910390a45050565b600081600001549050919050565b611c7b8383611a47565b611c8860008484846120cd565b1515611d22576040517f08c379a00000000000000000000000000000000000000000000000000000000081526004018080602001828103825260328152602001807f4552433732313a207472616e7366657220746f206e6f6e20455243373231526581526020017f63656976657220696d706c656d656e746572000000000000000000000000000081525060400191505060405180910390fd5b505050565b611d3b8160056122f790919063ffffffff16565b8073ffffffffffffffffffffffffffffffffffffffff167f6ae172837ea30b801fbfcdd4108aa1d5bf8ff775444fd70256b44e6bf3dfc3f660405160405180910390a250565b611d958160056123d490919063ffffffff16565b8073ffffffffffffffffffffffffffffffffffffffff167fe94479a9f7e1952cc78f2d6baab678adc1b772d936c6583def489e524cb6669260405160405180910390a250565b611df682826020604051908101604052806000815250611c71565b5050565b60008073ffffffffffffffffffffffffffffffffffffffff168273ffffffffffffffffffffffffffffffffffffffff1614151515611ec6576040517f08c379a00000000000000000000000000000000000000000000000000000000081526004018080602001828103825260228152602001807f526f6c65733a206163636f756e7420697320746865207a65726f20616464726581526020017f737300000000000000000000000000000000000000000000000000000000000081525060400191505060405180910390fd5b8260000160008373ffffffffffffffffffffffffffffffffffffffff1673ffffffffffffffffffffffffffffffffffffffff16815260200190815260200160002060009054906101000a900460ff16905092915050565b611f28848484611762565b611f34848484846120cd565b1515611fce576040517f08c379a00000000000000000000000000000000000000000000000000000000081526004018080602001828103825260328152602001807f4552433732313a207472616e7366657220746f206e6f6e20455243373231526581526020017f63656976657220696d706c656d656e746572000000000000000000000000000081525060400191505060405180910390fd5b50505050565b600073ffffffffffffffffffffffffffffffffffffffff166002600083815260200190815260200160002060009054906101000a900473ffffffffffffffffffffffffffffffffffffffff1673ffffffffffffffffffffffffffffffffffffffff161415156120915760006002600083815260200190815260200160002060006101000a81548173ffffffffffffffffffffffffffffffffffffffff021916908373ffffffffffffffffffffffffffffffffffffffff1602179055505b50565b6120ac600182600001546124d690919063ffffffff16565b816000018190555050565b6001816000016000828254019250508190555050565b60006120ee8473ffffffffffffffffffffffffffffffffffffffff16612520565b15156120fd57600190506122ef565b60008473ffffffffffffffffffffffffffffffffffffffff1663150b7a02612123611621565b8887876040518563ffffffff167c0100000000000000000000000000000000000000000000000000000000028152600401808573ffffffffffffffffffffffffffffffffffffffff1673ffffffffffffffffffffffffffffffffffffffff1681526020018473ffffffffffffffffffffffffffffffffffffffff1673ffffffffffffffffffffffffffffffffffffffff16815260200183815260200180602001828103825283818151815260200191508051906020019080838360005b838110156121fb5780820151818401526020810190506121e0565b50505050905090810190601f1680156122285780820380516001836020036101000a031916815260200191505b5095505050505050602060405180830381600087803b15801561224a57600080fd5b505af115801561225e573d6000803e3d6000fd5b505050506040513d602081101561227457600080fd5b8101908080519060200190929190505050905063150b7a027c0100000000000000000000000000000000000000000000000000000000027bffffffffffffffffffffffffffffffffffffffffffffffffffffffff1916817bffffffffffffffffffffffffffffffffffffffffffffffffffffffff1916149150505b949350505050565b6123018282611dfa565b151515612376576040517f08c379a000000000000000000000000000000000000000000000000000000000815260040180806020018281038252601f8152602001807f526f6c65733a206163636f756e7420616c72656164792068617320726f6c650081525060200191505060405180910390fd5b60018260000160008373ffffffffffffffffffffffffffffffffffffffff1673ffffffffffffffffffffffffffffffffffffffff16815260200190815260200160002060006101000a81548160ff0219169083151502179055505050565b6123de8282611dfa565b1515612478576040517f08c379a00000000000000000000000000000000000000000000000000000000081526004018080602001828103825260218152602001807f526f6c65733a206163636f756e7420646f6573206e6f74206861766520726f6c81526020017f650000000000000000000000000000000000000000000000000000000000000081525060400191505060405180910390fd5b60008260000160008373ffffffffffffffffffffffffffffffffffffffff1673ffffffffffffffffffffffffffffffffffffffff16815260200190815260200160002060006101000a81548160ff0219169083151502179055505050565b600061251883836040805190810160405280601e81526020017f536166654d6174683a207375627472616374696f6e206f766572666c6f77000081525061256c565b905092915050565b60008060007fc5d2460186f7233c927e7db2dcc703c0e500b653ca82273b7bfad8045d85a4706001029050833f9150600060010282141580156125635750808214155b92505050919050565b6000838311158290151561261b576040517f08c379a00000000000000000000000000000000000000000000000000000000081526004018080602001828103825283818151815260200191508051906020019080838360005b838110156125e05780820151818401526020810190506125c5565b50505050905090810190601f16801561260d5780820380516001836020036101000a031916815260200191505b509250505060405180910390fd5b506000838503905080915050939250505056fea165627a7a723058205e58d03a00b8d30b4b5359b5106c146e2dd4a11d39c082cf504275cacc76dfcf0029",
  "source": "pragma solidity ^0.5.0;\r\n\r\nimport \"../ERC721/ERC721.sol\";\r\nimport \"../../access/roles/MinterRole.sol\";\r\n\r\n/**\r\n * @title ERC721Mintable\r\n * @dev ERC721 minting logic.\r\n */\r\ncontract ERC721Mintable is ERC721, MinterRole {\r\n    /**\r\n     * @dev Function to mint tokens.\r\n     * @param to The address that will receive the minted token.\r\n     * @param tokenId The token id to mint.\r\n     * @return A boolean that indicates if the operation was successful.\r\n     */\r\n    function mint(address to, uint256 tokenId) public onlyMinter returns (bool) {\r\n        _mint(to, tokenId);\r\n        return true;\r\n    }\r\n\r\n    /**\r\n     * @dev Function to safely mint tokens.\r\n     * @param to The address that will receive the minted token.\r\n     * @param tokenId The token id to mint.\r\n     * @return A boolean that indicates if the operation was successful.\r\n     */\r\n    function safeMint(address to, uint256 tokenId) public onlyMinter returns (bool) {\r\n        _safeMint(to, tokenId);\r\n        return true;\r\n    }\r\n\r\n    /**\r\n     * @dev Function to safely mint tokens.\r\n     * @param to The address that will receive the minted token.\r\n     * @param tokenId The token id to mint.\r\n     * @param _data bytes data to send along with a safe transfer check.\r\n     * @return A boolean that indicates if the operation was successful.\r\n     */\r\n    function safeMint(address to, uint256 tokenId, bytes memory _data) public onlyMinter returns (bool) {\r\n        _safeMint(to, tokenId, _data);\r\n        return true;\r\n    }\r\n}\r\n",
  "sourcePath": "C:\\Users\\klau\\Documents\\fragment-nft\\contracts\\ERC721\\ERC721Mintable\\ERC721Mintable.sol",
  "compiler": {
    "name": "solc",
    "version": "0.5.0+commit.1d4f565a.Emscripten.clang"
  },
  "schemaVersion": "3.0.23",
  "updatedAt": "2020-03-02T12:26:09.443Z",
  "devdoc": {
    "details": "ERC721 minting logic.\r",
    "methods": {
      "approve(address,uint256)": {
        "details": "Approves another address to transfer the given token ID\r The zero address indicates there is no approved address.\r There can only be one approved address per token at a given time.\r Can only be called by the token owner or an approved operator.\r",
        "params": {
          "to": "address to be approved for the given token ID\r",
          "tokenId": "uint256 ID of the token to be approved\r"
        }
      },
      "balanceOf(address)": {
        "details": "Gets the balance of the specified address.\r",
        "params": {
          "owner": "address to query the balance of\r"
        },
        "return": "uint256 representing the amount owned by the passed address\r"
      },
      "getApproved(uint256)": {
        "details": "Gets the approved address for a token ID, or zero if no address set\r Reverts if the token ID does not exist.\r",
        "params": {
          "tokenId": "uint256 ID of the token to query the approval of\r"
        },
        "return": "address currently approved for the given token ID\r"
      },
      "isApprovedForAll(address,address)": {
        "details": "Tells whether an operator is approved by a given owner.\r",
        "params": {
          "operator": "operator address which you want to query the approval of\r",
          "owner": "owner address which you want to query the approval of\r"
        },
        "return": "bool whether the given operator is approved by the given owner\r"
      },
      "mint(address,uint256)": {
        "details": "Function to mint tokens.\r",
        "params": {
          "to": "The address that will receive the minted token.\r",
          "tokenId": "The token id to mint.\r"
        },
        "return": "A boolean that indicates if the operation was successful.\r"
      },
      "ownerOf(uint256)": {
        "details": "Gets the owner of the specified token ID.\r",
        "params": {
          "tokenId": "uint256 ID of the token to query the owner of\r"
        },
        "return": "address currently marked as the owner of the given token ID\r"
      },
      "safeMint(address,uint256)": {
        "details": "Function to safely mint tokens.\r",
        "params": {
          "to": "The address that will receive the minted token.\r",
          "tokenId": "The token id to mint.\r"
        },
        "return": "A boolean that indicates if the operation was successful.\r"
      },
      "safeMint(address,uint256,bytes)": {
        "details": "Function to safely mint tokens.\r",
        "params": {
          "_data": "bytes data to send along with a safe transfer check.\r",
          "to": "The address that will receive the minted token.\r",
          "tokenId": "The token id to mint.\r"
        },
        "return": "A boolean that indicates if the operation was successful.\r"
      },
      "safeTransferFrom(address,address,uint256)": {
        "details": "Safely transfers the ownership of a given token ID to another address\r If the target address is a contract, it must implement {IERC721Receiver-onERC721Received},\r which is called upon a safe transfer, and return the magic value\r `bytes4(keccak256(\"onERC721Received(address,address,uint256,bytes)\"))`; otherwise,\r the transfer is reverted.\r Requires the msg.sender to be the owner, approved, or operator\r",
        "params": {
          "from": "current owner of the token\r",
          "to": "address to receive the ownership of the given token ID\r",
          "tokenId": "uint256 ID of the token to be transferred\r"
        }
      },
      "safeTransferFrom(address,address,uint256,bytes)": {
        "details": "Safely transfers the ownership of a given token ID to another address\r If the target address is a contract, it must implement {IERC721Receiver-onERC721Received},\r which is called upon a safe transfer, and return the magic value\r `bytes4(keccak256(\"onERC721Received(address,address,uint256,bytes)\"))`; otherwise,\r the transfer is reverted.\r Requires the _msgSender() to be the owner, approved, or operator\r",
        "params": {
          "_data": "bytes data to send along with a safe transfer check\r",
          "from": "current owner of the token\r",
          "to": "address to receive the ownership of the given token ID\r",
          "tokenId": "uint256 ID of the token to be transferred\r"
        }
      },
      "setApprovalForAll(address,bool)": {
        "details": "Sets or unsets the approval of a given operator\r An operator is allowed to transfer all tokens of the sender on their behalf.\r",
        "params": {
          "approved": "representing the status of the approval to be set\r",
          "to": "operator address to set the approval\r"
        }
      },
      "supportsInterface(bytes4)": {
        "details": "See {IERC165-supportsInterface}.\r      * Time complexity O(1), guaranteed to always use less than 30 000 gas.\r"
      },
      "transferFrom(address,address,uint256)": {
        "details": "Transfers the ownership of a given token ID to another address.\r Usage of this method is discouraged, use {safeTransferFrom} whenever possible.\r Requires the msg.sender to be the owner, approved, or operator.\r",
        "params": {
          "from": "current owner of the token\r",
          "to": "address to receive the ownership of the given token ID\r",
          "tokenId": "uint256 ID of the token to be transferred\r"
        }
      }
    },
    "title": "ERC721Mintable\r"
  },
  "userdoc": {
    "methods": {}
  }
}