{
  "contractName": "fragmentClaimer",
  "abi": [
    {
      "constant": true,
      "inputs": [
        {
          "name": "",
          "type": "uint256"
        }
      ],
      "name": "tokensThatWereClaimed",
      "outputs": [
        {
          "name": "",
          "type": "bool"
        }
      ],
      "payable": false,
      "stateMutability": "view",
      "type": "function"
    },
    {
      "constant": true,
      "inputs": [
        {
          "name": "",
          "type": "address"
        }
      ],
      "name": "whitelist",
      "outputs": [
        {
          "name": "",
          "type": "bool"
        }
      ],
      "payable": false,
      "stateMutability": "view",
      "type": "function"
    },
    {
      "inputs": [
        {
          "name": "_maxTokenId",
          "type": "uint256"
        },
        {
          "name": "_ERC721address",
          "type": "address"
        }
      ],
      "payable": false,
      "stateMutability": "nonpayable",
      "type": "constructor"
    },
    {
      "payable": true,
      "stateMutability": "payable",
      "type": "fallback"
    },
    {
      "anonymous": false,
      "inputs": [
        {
          "indexed": false,
          "name": "_account",
          "type": "address"
        },
        {
          "indexed": false,
          "name": "_value",
          "type": "bool"
        }
      ],
      "name": "UpdateWhitelist",
      "type": "event"
    },
    {
      "anonymous": false,
      "inputs": [
        {
          "indexed": false,
          "name": "_tokenNumber",
          "type": "uint256"
        },
        {
          "indexed": false,
          "name": "_tokenClaimer",
          "type": "address"
        }
      ],
      "name": "aTokenWasClaimed",
      "type": "event"
    },
    {
      "anonymous": false,
      "inputs": [
        {
          "indexed": false,
          "name": "_tipper",
          "type": "address"
        }
      ],
      "name": "yeeeeeeaaaaaahThxCoeurCoeurCoeur",
      "type": "event"
    },
    {
      "anonymous": false,
      "inputs": [
        {
          "indexed": false,
          "name": "_withdrawer",
          "type": "address"
        },
        {
          "indexed": false,
          "name": "_funds",
          "type": "uint256"
        }
      ],
      "name": "withdrawFunds",
      "type": "event"
    },
    {
      "constant": false,
      "inputs": [
        {
          "name": "_tokenToClaim",
          "type": "uint256"
        },
        {
          "name": "_tokenURI",
          "type": "string"
        },
        {
          "name": "_signature",
          "type": "bytes"
        }
      ],
      "name": "claimAToken",
      "outputs": [
        {
          "name": "",
          "type": "bool"
        }
      ],
      "payable": true,
      "stateMutability": "payable",
      "type": "function"
    },
    {
      "constant": false,
      "inputs": [],
      "name": "withdrawTips",
      "outputs": [],
      "payable": false,
      "stateMutability": "nonpayable",
      "type": "function"
    },
    {
      "constant": false,
      "inputs": [
        {
          "name": "_account",
          "type": "address"
        },
        {
          "name": "_value",
          "type": "bool"
        }
      ],
      "name": "updateWhitelist",
      "outputs": [
        {
          "name": "",
          "type": "bool"
        }
      ],
      "payable": false,
      "stateMutability": "nonpayable",
      "type": "function"
    }
  ],
  "bytecode": "0x608060405234801561001057600080fd5b50604051604080610ea28339810180604052604081101561003057600080fd5b81019080805190602001909291908051906020019092919050505060016000803373ffffffffffffffffffffffffffffffffffffffff1673ffffffffffffffffffffffffffffffffffffffff16815260200190815260200160002060006101000a81548160ff0219169083151502179055508160028190555080600460006101000a81548173ffffffffffffffffffffffffffffffffffffffff021916908373ffffffffffffffffffffffffffffffffffffffff1602179055505050610da7806100fb6000396000f3fe60806040526004361061006d576000357c0100000000000000000000000000000000000000000000000000000000900463ffffffff1680630d392cd9146100ec5780633aaa74b2146101615780634a80edcb1461017857806398195129146101cb5780639b19251a1461033f575b60003411156100ea57346003600082825401925050819055507f98122775feb83292ce43154cc4bc798bff4ba6678820c087b8c80c67cbc636f533604051808273ffffffffffffffffffffffffffffffffffffffff1673ffffffffffffffffffffffffffffffffffffffff16815260200191505060405180910390a15b005b3480156100f857600080fd5b506101476004803603604081101561010f57600080fd5b81019080803573ffffffffffffffffffffffffffffffffffffffff1690602001909291908035151590602001909291905050506103a8565b604051808215151515815260200191505060405180910390f35b34801561016d57600080fd5b50610176610539565b005b34801561018457600080fd5b506101b16004803603602081101561019b57600080fd5b81019080803590602001909291905050506106b1565b604051808215151515815260200191505060405180910390f35b610325600480360360608110156101e157600080fd5b81019080803590602001909291908035906020019064010000000081111561020857600080fd5b82018360208201111561021a57600080fd5b8035906020019184600183028401116401000000008311171561023c57600080fd5b91908080601f016020809104026020016040519081016040528093929190818152602001838380828437600081840152601f19601f8201169050808301925050505050505091929192908035906020019064010000000081111561029f57600080fd5b8201836020820111156102b157600080fd5b803590602001918460018302840111640100000000831117156102d357600080fd5b91908080601f016020809104026020016040519081016040528093929190818152602001838380828437600081840152601f19601f8201169050808301925050505050505091929192905050506106d1565b604051808215151515815260200191505060405180910390f35b34801561034b57600080fd5b5061038e6004803603602081101561036257600080fd5b81019080803573ffffffffffffffffffffffffffffffffffffffff169060200190929190505050610bde565b604051808215151515815260200191505060405180910390f35b60008060003373ffffffffffffffffffffffffffffffffffffffff1673ffffffffffffffffffffffffffffffffffffffff16815260200190815260200160002060009054906101000a900460ff16151561046a576040517f08c379a00000000000000000000000000000000000000000000000000000000081526004018080602001828103825260178152602001807f4163636f756e74204e6f742057686974656c697374656400000000000000000081525060200191505060405180910390fd5b816000808573ffffffffffffffffffffffffffffffffffffffff1673ffffffffffffffffffffffffffffffffffffffff16815260200190815260200160002060006101000a81548160ff0219169083151502179055507f08b2c0469ecd1d7a21d7e1492f0fc75fc7e8e0fa4fdf4275949c90875f5ebdf58383604051808373ffffffffffffffffffffffffffffffffffffffff1673ffffffffffffffffffffffffffffffffffffffff168152602001821515151581526020019250505060405180910390a16001905092915050565b6000803373ffffffffffffffffffffffffffffffffffffffff1673ffffffffffffffffffffffffffffffffffffffff16815260200190815260200160002060009054906101000a900460ff1615156105f9576040517f08c379a00000000000000000000000000000000000000000000000000000000081526004018080602001828103825260178152602001807f4163636f756e74204e6f742057686974656c697374656400000000000000000081525060200191505060405180910390fd5b3373ffffffffffffffffffffffffffffffffffffffff166108fc6003549081150290604051600060405180830381858888f19350505050158015610641573d6000803e3d6000fd5b507fc10753299d70f8b15c8a36ea98ae66c6d383e39fa5dd4e0ffcdea85c2223b2c833600354604051808373ffffffffffffffffffffffffffffffffffffffff1673ffffffffffffffffffffffffffffffffffffffff1681526020018281526020019250505060405180910390a1565b60016020528060005260406000206000915054906101000a900460ff1681565b60006001600085815260200190815260200160002060009054906101000a900460ff16151515610769576040517f08c379a000000000000000000000000000000000000000000000000000000000815260040180806020018281038252601c8152602001807f436c61696d3a20746f6b656e20616c726561647920636c61696d65640000000081525060200191505060405180910390fd5b60025484111515156107e3576040517f08c379a00000000000000000000000000000000000000000000000000000000081526004018080602001828103825260188152602001807f436c61696d3a20746f6b656e4964206f7574626f756e6473000000000000000081525060200191505060405180910390fd5b6000600460009054906101000a900473ffffffffffffffffffffffffffffffffffffffff168585604051602001808473ffffffffffffffffffffffffffffffffffffffff1673ffffffffffffffffffffffffffffffffffffffff16815260200183815260200180602001828103825283818151815260200191508051906020019080838360005b8381101561088557808201518184015260208101905061086a565b50505050905090810190601f1680156108b25780820380516001836020036101000a031916815260200191505b509450505050506040516020818303038152906040528051906020012090506108db8184610bfe565b151561094f576040517f08c379a000000000000000000000000000000000000000000000000000000000815260040180806020018281038252601d8152602001807f436c61696d3a207369676e6572206e6f742077686974656c697374656400000081525060200191505060405180910390fd5b6000600460009054906101000a900473ffffffffffffffffffffffffffffffffffffffff1690508073ffffffffffffffffffffffffffffffffffffffff166350bb4e7f3388886040518463ffffffff167c0100000000000000000000000000000000000000000000000000000000028152600401808473ffffffffffffffffffffffffffffffffffffffff1673ffffffffffffffffffffffffffffffffffffffff16815260200183815260200180602001828103825283818151815260200191508051906020019080838360005b83811015610a38578082015181840152602081019050610a1d565b50505050905090810190601f168015610a655780820380516001836020036101000a031916815260200191505b50945050505050602060405180830381600087803b158015610a8657600080fd5b505af1158015610a9a573d6000803e3d6000fd5b505050506040513d6020811015610ab057600080fd5b810190808051906020019092919050505050600180600088815260200190815260200160002060006101000a81548160ff0219169083151502179055507f4079d6cdd2cbe956002b074ad7fb0ab4a6e5b284448268f20d7e9b0b6e60562a8633604051808381526020018273ffffffffffffffffffffffffffffffffffffffff1673ffffffffffffffffffffffffffffffffffffffff1681526020019250505060405180910390a16000341115610bd5577f98122775feb83292ce43154cc4bc798bff4ba6678820c087b8c80c67cbc636f533604051808273ffffffffffffffffffffffffffffffffffffffff1673ffffffffffffffffffffffffffffffffffffffff16815260200191505060405180910390a1346003600082825401925050819055505b50509392505050565b60006020528060005260406000206000915054906101000a900460ff1681565b60008060008060418551141515610c1b5760009350505050610d75565b6020850151925060408501519150606085015160001a9050601b8160ff161015610c4657601b810190505b601b8160ff1614158015610c5e5750601c8160ff1614155b15610c6f5760009350505050610d75565b60008060018860405160200180807f19457468657265756d205369676e6564204d6573736167653a0a333200000000815250601c018281526020019150506040516020818303038152906040528051906020012084878760405160008152602001604052604051808581526020018460ff1660ff1681526020018381526020018281526020019450505050506020604051602081039080840390855afa158015610d1d573d6000803e3d6000fd5b5050506020604051035173ffffffffffffffffffffffffffffffffffffffff1673ffffffffffffffffffffffffffffffffffffffff16815260200190815260200160002060009054906101000a900460ff1693505050505b9291505056fea165627a7a7230582086372a40595fb55c669163a84e0a03c05cffcc38180e47d78921b4f6fe8aaa350029",
  "source": "pragma solidity ^0.5.0;\n\nimport \"../ERC721/ERC721MetadataMintable/ERC721MetadataMintable.sol\";\n\ncontract fragmentClaimer {\n    event UpdateWhitelist(address _account, bool _value);\n    event aTokenWasClaimed(uint _tokenNumber, address _tokenClaimer);\n    event yeeeeeeaaaaaahThxCoeurCoeurCoeur(address _tipper);\n    event withdrawFunds(address _withdrawer, uint _funds);\n\n    mapping(address => bool) public whitelist;\n    mapping(uint => bool) public tokensThatWereClaimed;\n\n    uint maxTokenId;\n    uint totalFunds;\n    address ERC721address;\n\n    constructor(uint _maxTokenId, address _ERC721address) public {\n        whitelist[msg.sender] = true;\n        maxTokenId = _maxTokenId;\n        ERC721address = _ERC721address;\n    }\n\n    function () external payable {\n        if (msg.value > 0) {\n            totalFunds += msg.value;\n            emit yeeeeeeaaaaaahThxCoeurCoeurCoeur(msg.sender);\n        }\n    }\n\n    function claimAToken(uint _tokenToClaim, string memory _tokenURI, bytes memory _signature) \n    public \n    payable\n    returns (bool)\n    {\n\n        // Checking if the token has already been claimed\n        require(!tokensThatWereClaimed[_tokenToClaim], \"Claim: token already claimed\");\n        // Not sure this is useful but oh well\n        require(_tokenToClaim <= maxTokenId, \"Claim: tokenId outbounds\");\n        // Creating a hash unique to this token number, and this token contract\n        bytes32 _hash = keccak256(abi.encode(ERC721address, _tokenToClaim, _tokenURI));\n        // Making sure that the signer has been whitelisted\n        require(signerIsWhitelisted(_hash, _signature), \"Claim: signer not whitelisted\");\n        // All should be good, so we mint a token yeah\n        ERC721MetadataMintable targetERC721Contract = ERC721MetadataMintable(ERC721address);\n        targetERC721Contract.mintWithTokenURI(msg.sender, _tokenToClaim, _tokenURI);\n\n        // Registering that the token was claimed\n        // Note that there is a check in the ERC721 for this too\n        tokensThatWereClaimed[_tokenToClaim] = true;\n        // Emitting an event\n        emit aTokenWasClaimed(_tokenToClaim, msg.sender);\n\n        // If a tip was included, thank the tipper\n        if (msg.value > 0) {\n            emit yeeeeeeaaaaaahThxCoeurCoeurCoeur(msg.sender);\n            totalFunds += msg.value;\n        }\n    }\n\n    function withdrawTips() public onlyWhitelisted {\n        msg.sender.transfer(totalFunds);\n        emit withdrawFunds(msg.sender, totalFunds );\n    }\n\n\n    // 20/02/27: Borrowed from https://github.com/austintgriffith/bouncer-proxy/blob/master/BouncerProxy/BouncerProxy.sol\n    //borrowed from OpenZeppelin's ESDA stuff:\n    //https://github.com/OpenZeppelin/openzeppelin-solidity/blob/master/contracts/cryptography/ECDSA.sol\n    function signerIsWhitelisted(bytes32 _hash, bytes memory _signature) internal view returns (bool) {\n\t\tbytes32 r;\n\t\tbytes32 s;\n\t\tuint8 v;\n\t\t// Check the signature length\n\t\tif (_signature.length != 65) {\n\t\t\treturn false;\n\t\t}\n\t\t// Divide the signature in r, s and v variables\n\t\t// ecrecover takes the signature parameters, and the only way to get them\n\t\t// currently is to use assembly.\n\t\t// solium-disable-next-line security/no-inline-assembly\n\t\tassembly {\n\t\t\tr := mload(add(_signature, 32))\n\t\t\ts := mload(add(_signature, 64))\n\t\t\tv := byte(0, mload(add(_signature, 96)))\n\t\t}\n\t\t// Version of signature should be 27 or 28, but 0 and 1 are also possible versions\n\t\tif (v < 27) {\n\t\t\tv += 27;\n\t\t}\n\t\t// If the version is correct return the signer address\n\t\tif (v != 27 && v != 28) {\n\t\t\treturn false;\n\t\t} else {\n\t\t\t// solium-disable-next-line arg-overflow\n\t\t\treturn whitelist[ecrecover(keccak256(\n\t\t\t\tabi.encodePacked(\"\\x19Ethereum Signed Message:\\n32\", _hash)\n\t\t\t\t), v, r, s)];\n        }\n\t}\n\n\t//  20/02/27: Borrowed from https://github.com/rocksideio/contracts/blob/master/contracts/Identity.sol\n\tfunction updateWhitelist(address _account, bool _value) onlyWhitelisted public returns (bool) {\n        whitelist[_account] = _value;\n        emit UpdateWhitelist(_account, _value);\n        return true;\n    }\n\n    modifier onlyWhitelisted() {\n        require(whitelist[msg.sender], \"Account Not Whitelisted\");\n        _;\n    }\n}\n",
  "sourcePath": "/home/krouspy/project/fragment-nft/contracts/fragment-claimer/FragmentClaimer.sol",
  "compiler": {
    "name": "solc",
    "version": "0.5.0+commit.1d4f565a.Emscripten.clang"
  },
  "schemaVersion": "3.0.23",
  "updatedAt": "2020-03-01T22:30:09.560Z",
  "devdoc": {
    "methods": {}
  },
  "userdoc": {
    "methods": {}
  }
}