{
  "contractName": "GSNRecipientSignature",
  "abi": [
    {
      "constant": true,
      "inputs": [],
      "name": "getHubAddr",
      "outputs": [
        {
          "name": "",
          "type": "address"
        }
      ],
      "payable": false,
      "stateMutability": "view",
      "type": "function"
    },
    {
      "constant": false,
      "inputs": [
        {
          "name": "context",
          "type": "bytes"
        }
      ],
      "name": "preRelayedCall",
      "outputs": [
        {
          "name": "",
          "type": "bytes32"
        }
      ],
      "payable": false,
      "stateMutability": "nonpayable",
      "type": "function"
    },
    {
      "constant": true,
      "inputs": [],
      "name": "relayHubVersion",
      "outputs": [
        {
          "name": "",
          "type": "string"
        }
      ],
      "payable": false,
      "stateMutability": "view",
      "type": "function"
    },
    {
      "constant": false,
      "inputs": [
        {
          "name": "context",
          "type": "bytes"
        },
        {
          "name": "success",
          "type": "bool"
        },
        {
          "name": "actualCharge",
          "type": "uint256"
        },
        {
          "name": "preRetVal",
          "type": "bytes32"
        }
      ],
      "name": "postRelayedCall",
      "outputs": [],
      "payable": false,
      "stateMutability": "nonpayable",
      "type": "function"
    },
    {
      "inputs": [
        {
          "name": "trustedSigner",
          "type": "address"
        }
      ],
      "payable": false,
      "stateMutability": "nonpayable",
      "type": "constructor"
    },
    {
      "anonymous": false,
      "inputs": [
        {
          "indexed": true,
          "name": "oldRelayHub",
          "type": "address"
        },
        {
          "indexed": true,
          "name": "newRelayHub",
          "type": "address"
        }
      ],
      "name": "RelayHubChanged",
      "type": "event"
    },
    {
      "constant": true,
      "inputs": [
        {
          "name": "relay",
          "type": "address"
        },
        {
          "name": "from",
          "type": "address"
        },
        {
          "name": "encodedFunction",
          "type": "bytes"
        },
        {
          "name": "transactionFee",
          "type": "uint256"
        },
        {
          "name": "gasPrice",
          "type": "uint256"
        },
        {
          "name": "gasLimit",
          "type": "uint256"
        },
        {
          "name": "nonce",
          "type": "uint256"
        },
        {
          "name": "approvalData",
          "type": "bytes"
        },
        {
          "name": "",
          "type": "uint256"
        }
      ],
      "name": "acceptRelayedCall",
      "outputs": [
        {
          "name": "",
          "type": "uint256"
        },
        {
          "name": "",
          "type": "bytes"
        }
      ],
      "payable": false,
      "stateMutability": "view",
      "type": "function"
    }
  ],
  "bytecode": "0x608060405273d216153c06e857cd7f72665e0af1d7d82172f4946000806101000a81548173ffffffffffffffffffffffffffffffffffffffff021916908373ffffffffffffffffffffffffffffffffffffffff16021790555034801561006457600080fd5b50604051602080610d158339810180604052602081101561008457600080fd5b8101908080519060200190929190505050600073ffffffffffffffffffffffffffffffffffffffff168173ffffffffffffffffffffffffffffffffffffffff1614151515610160576040517f08c379a00000000000000000000000000000000000000000000000000000000081526004018080602001828103825260398152602001807f47534e526563697069656e745369676e61747572653a2074727573746564207381526020017f69676e657220697320746865207a65726f20616464726573730000000000000081525060400191505060405180910390fd5b80600160006101000a81548173ffffffffffffffffffffffffffffffffffffffff021916908373ffffffffffffffffffffffffffffffffffffffff16021790555050610b64806101b16000396000f3fe60806040526004361061006d576000357c0100000000000000000000000000000000000000000000000000000000900463ffffffff16806374e861d61461007257806380274db7146100c957806383947ea014610163578063ad61ccd514610331578063e06e0e22146103c1575b600080fd5b34801561007e57600080fd5b50610087610467565b604051808273ffffffffffffffffffffffffffffffffffffffff1673ffffffffffffffffffffffffffffffffffffffff16815260200191505060405180910390f35b3480156100d557600080fd5b5061014d600480360360208110156100ec57600080fd5b810190808035906020019064010000000081111561010957600080fd5b82018360208201111561011b57600080fd5b8035906020019184600183028401116401000000008311171561013d57600080fd5b9091929391929390505050610490565b6040518082815260200191505060405180910390f35b34801561016f57600080fd5b506102af600480360361012081101561018757600080fd5b81019080803573ffffffffffffffffffffffffffffffffffffffff169060200190929190803573ffffffffffffffffffffffffffffffffffffffff169060200190929190803590602001906401000000008111156101e457600080fd5b8201836020820111156101f657600080fd5b8035906020019184600183028401116401000000008311171561021857600080fd5b9091929391929390803590602001909291908035906020019092919080359060200190929190803590602001909291908035906020019064010000000081111561026157600080fd5b82018360208201111561027357600080fd5b8035906020019184600183028401116401000000008311171561029557600080fd5b9091929391929390803590602001909291905050506105b7565b6040518083815260200180602001828103825283818151815260200191508051906020019080838360005b838110156102f55780820151818401526020810190506102da565b50505050905090810190601f1680156103225780820380516001836020036101000a031916815260200191505b50935050505060405180910390f35b34801561033d57600080fd5b50610346610811565b6040518080602001828103825283818151815260200191508051906020019080838360005b8381101561038657808201518184015260208101905061036b565b50505050905090810190601f1680156103b35780820380516001836020036101000a031916815260200191505b509250505060405180910390f35b3480156103cd57600080fd5b50610465600480360360808110156103e457600080fd5b810190808035906020019064010000000081111561040157600080fd5b82018360208201111561041357600080fd5b8035906020019184600183028401116401000000008311171561043557600080fd5b9091929391929390803515159060200190929190803590602001909291908035906020019092919050505061084e565b005b60008060009054906101000a900473ffffffffffffffffffffffffffffffffffffffff16905090565b600061049a610467565b73ffffffffffffffffffffffffffffffffffffffff163373ffffffffffffffffffffffffffffffffffffffff16141515610562576040517f08c379a00000000000000000000000000000000000000000000000000000000081526004018080602001828103825260248152602001807f47534e526563697069656e743a2063616c6c6572206973206e6f742052656c6181526020017f794875620000000000000000000000000000000000000000000000000000000081525060400191505060405180910390fd5b6105af83838080601f016020809104026020016040519081016040528093929190818152602001838380828437600081840152601f19601f82011690508083019250505050505050610975565b905092915050565b60006060808d8d8d8d8d8d8d8d6105cc610467565b30604051602001808b73ffffffffffffffffffffffffffffffffffffffff1673ffffffffffffffffffffffffffffffffffffffff166c010000000000000000000000000281526014018a73ffffffffffffffffffffffffffffffffffffffff1673ffffffffffffffffffffffffffffffffffffffff166c01000000000000000000000000028152601401898980828437808301925050508781526020018681526020018581526020018481526020018373ffffffffffffffffffffffffffffffffffffffff1673ffffffffffffffffffffffffffffffffffffffff166c010000000000000000000000000281526014018273ffffffffffffffffffffffffffffffffffffffff1673ffffffffffffffffffffffffffffffffffffffff166c010000000000000000000000000281526014019a50505050505050505050506040516020818303038152906040529050600160009054906101000a900473ffffffffffffffffffffffffffffffffffffffff1673ffffffffffffffffffffffffffffffffffffffff166107b987878080601f016020809104026020016040519081016040528093929190818152602001838380828437600081840152601f19601f820116905080830192505050505050506107ab848051906020012061097c565b6109d490919063ffffffff16565b73ffffffffffffffffffffffffffffffffffffffff1614156107e7576107dd610adb565b9250925050610801565b6107fb6000808111156107f657fe5b610b00565b92509250505b9b509b9950505050505050505050565b60606040805190810160405280600581526020017f312e302e30000000000000000000000000000000000000000000000000000000815250905090565b610856610467565b73ffffffffffffffffffffffffffffffffffffffff163373ffffffffffffffffffffffffffffffffffffffff1614151561091e576040517f08c379a00000000000000000000000000000000000000000000000000000000081526004018080602001828103825260248152602001807f47534e526563697069656e743a2063616c6c6572206973206e6f742052656c6181526020017f794875620000000000000000000000000000000000000000000000000000000081525060400191505060405180910390fd5b61096e85858080601f016020809104026020016040519081016040528093929190818152602001838380828437600081840152601f19601f82011690508083019250505050505050848484610b22565b5050505050565b6000919050565b60008160405160200180807f19457468657265756d205369676e6564204d6573736167653a0a333200000000815250601c01828152602001915050604051602081830303815290604052805190602001209050919050565b6000604182511415156109ea5760009050610ad5565b60008060006020850151925060408501519150606085015160001a90507f7fffffffffffffffffffffffffffffff5d576e7357a4501ddfe92f46681b20a082600190041115610a3f5760009350505050610ad5565b601b8160ff1614158015610a575750601c8160ff1614155b15610a685760009350505050610ad5565b60018682858560405160008152602001604052604051808581526020018460ff1660ff1681526020018381526020018281526020019450505050506020604051602081039080840390855afa158015610ac5573d6000803e3d6000fd5b5050506020604051035193505050505b92915050565b60006060610af86020604051908101604052806000815250610b28565b915091509091565b6000606082600b01602060405190810160405280600081525091509150915091565b50505050565b600060606000839150915091509156fea165627a7a723058207e4d0526fe3701aba83cf4f75513e7e955797d55013c4f3522a052300d7118010029",
  "source": "pragma solidity ^0.5.0;\r\n\r\nimport \"./GSNRecipient.sol\";\r\nimport \"../cryptography/ECDSA.sol\";\r\n\r\n/**\r\n * @dev A xref:ROOT:gsn-strategies.adoc#gsn-strategies[GSN strategy] that allows relayed transactions through when they are\r\n * accompanied by the signature of a trusted signer. The intent is for this signature to be generated by a server that\r\n * performs validations off-chain. Note that nothing is charged to the user in this scheme. Thus, the server should make\r\n * sure to account for this in their economic and threat model.\r\n */\r\ncontract GSNRecipientSignature is GSNRecipient {\r\n    using ECDSA for bytes32;\r\n\r\n    address private _trustedSigner;\r\n\r\n    enum GSNRecipientSignatureErrorCodes {\r\n        INVALID_SIGNER\r\n    }\r\n\r\n    /**\r\n     * @dev Sets the trusted signer that is going to be producing signatures to approve relayed calls.\r\n     */\r\n    constructor(address trustedSigner) public {\r\n        require(trustedSigner != address(0), \"GSNRecipientSignature: trusted signer is the zero address\");\r\n        _trustedSigner = trustedSigner;\r\n    }\r\n\r\n    /**\r\n     * @dev Ensures that only transactions with a trusted signature can be relayed through the GSN.\r\n     */\r\n    function acceptRelayedCall(\r\n        address relay,\r\n        address from,\r\n        bytes calldata encodedFunction,\r\n        uint256 transactionFee,\r\n        uint256 gasPrice,\r\n        uint256 gasLimit,\r\n        uint256 nonce,\r\n        bytes calldata approvalData,\r\n        uint256\r\n    )\r\n        external\r\n        view\r\n        returns (uint256, bytes memory)\r\n    {\r\n        bytes memory blob = abi.encodePacked(\r\n            relay,\r\n            from,\r\n            encodedFunction,\r\n            transactionFee,\r\n            gasPrice,\r\n            gasLimit,\r\n            nonce, // Prevents replays on RelayHub\r\n            getHubAddr(), // Prevents replays in multiple RelayHubs\r\n            address(this) // Prevents replays in multiple recipients\r\n        );\r\n        if (keccak256(blob).toEthSignedMessageHash().recover(approvalData) == _trustedSigner) {\r\n            return _approveRelayedCall();\r\n        } else {\r\n            return _rejectRelayedCall(uint256(GSNRecipientSignatureErrorCodes.INVALID_SIGNER));\r\n        }\r\n    }\r\n\r\n    function _preRelayedCall(bytes memory) internal returns (bytes32) {\r\n        // solhint-disable-previous-line no-empty-blocks\r\n    }\r\n\r\n    function _postRelayedCall(bytes memory, bool, uint256, bytes32) internal {\r\n        // solhint-disable-previous-line no-empty-blocks\r\n    }\r\n}\r\n",
  "sourcePath": "C:\\Users\\klau\\Documents\\fragment-nft\\contracts\\GSN\\GSNRecipientSignature.sol",
  "compiler": {
    "name": "solc",
    "version": "0.5.0+commit.1d4f565a.Emscripten.clang"
  },
  "schemaVersion": "3.0.23",
  "updatedAt": "2020-03-02T12:26:09.455Z",
  "devdoc": {
    "details": "A xref:ROOT:gsn-strategies.adoc#gsn-strategies[GSN strategy] that allows relayed transactions through when they are\r accompanied by the signature of a trusted signer. The intent is for this signature to be generated by a server that\r performs validations off-chain. Note that nothing is charged to the user in this scheme. Thus, the server should make\r sure to account for this in their economic and threat model.\r",
    "methods": {
      "acceptRelayedCall(address,address,bytes,uint256,uint256,uint256,uint256,bytes,uint256)": {
        "details": "Ensures that only transactions with a trusted signature can be relayed through the GSN.\r"
      },
      "constructor": {
        "details": "Sets the trusted signer that is going to be producing signatures to approve relayed calls.\r"
      },
      "getHubAddr()": {
        "details": "Returns the address of the {IRelayHub} contract for this recipient.\r"
      },
      "postRelayedCall(bytes,bool,uint256,bytes32)": {
        "details": "See `IRelayRecipient.postRelayedCall`.\r      * This function should not be overriden directly, use `_postRelayedCall` instead.\r      * * Requirements:\r      * - the caller must be the `RelayHub` contract.\r"
      },
      "preRelayedCall(bytes)": {
        "details": "See `IRelayRecipient.preRelayedCall`.\r      * This function should not be overriden directly, use `_preRelayedCall` instead.\r      * * Requirements:\r      * - the caller must be the `RelayHub` contract.\r"
      },
      "relayHubVersion()": {
        "details": "Returns the version string of the {IRelayHub} for which this recipient implementation was built. If\r {_upgradeRelayHub} is used, the new {IRelayHub} instance should be compatible with this version.\r"
      }
    }
  },
  "userdoc": {
    "methods": {}
  }
}