{
  "contractName": "SignatureTester",
  "abi": [
    {
      "constant": true,
      "inputs": [],
      "name": "encoded",
      "outputs": [
        {
          "name": "",
          "type": "bytes"
        }
      ],
      "payable": false,
      "stateMutability": "view",
      "type": "function"
    },
    {
      "constant": true,
      "inputs": [],
      "name": "compiledHash",
      "outputs": [
        {
          "name": "",
          "type": "bytes32"
        }
      ],
      "payable": false,
      "stateMutability": "view",
      "type": "function"
    },
    {
      "inputs": [],
      "payable": false,
      "stateMutability": "nonpayable",
      "type": "constructor"
    },
    {
      "constant": false,
      "inputs": [
        {
          "name": "_contractAddress",
          "type": "address"
        },
        {
          "name": "_tokenNumber",
          "type": "uint256"
        },
        {
          "name": "_tokenURI",
          "type": "string"
        }
      ],
      "name": "getHash",
      "outputs": [],
      "payable": false,
      "stateMutability": "nonpayable",
      "type": "function"
    }
  ],
  "bytecode": "0x608060405234801561001057600080fd5b506104ca806100206000396000f3fe608060405260043610610057576000357c0100000000000000000000000000000000000000000000000000000000900463ffffffff168063247eff5f1461005c5780636dcca754146100ec578063748e7f2714610117575b600080fd5b34801561006857600080fd5b50610071610209565b6040518080602001828103825283818151815260200191508051906020019080838360005b838110156100b1578082015181840152602081019050610096565b50505050905090810190601f1680156100de5780820380516001836020036101000a031916815260200191505b509250505060405180910390f35b3480156100f857600080fd5b506101016102a7565b6040518082815260200191505060405180910390f35b34801561012357600080fd5b506102076004803603606081101561013a57600080fd5b81019080803573ffffffffffffffffffffffffffffffffffffffff169060200190929190803590602001909291908035906020019064010000000081111561018157600080fd5b82018360208201111561019357600080fd5b803590602001918460018302840111640100000000831117156101b557600080fd5b91908080601f016020809104026020016040519081016040528093929190818152602001838380828437600081840152601f19601f8201169050808301925050505050505091929192905050506102ad565b005b60018054600181600116156101000203166002900480601f01602080910402602001604051908101604052809291908181526020018280546001816001161561010002031660029004801561029f5780601f106102745761010080835404028352916020019161029f565b820191906000526020600020905b81548152906001019060200180831161028257829003601f168201915b505050505081565b60005481565b828282604051602001808473ffffffffffffffffffffffffffffffffffffffff1673ffffffffffffffffffffffffffffffffffffffff16815260200183815260200180602001828103825283818151815260200191508051906020019080838360005b8381101561032b578082015181840152602081019050610310565b50505050905090810190601f1680156103585780820380516001836020036101000a031916815260200191505b50945050505050604051602081830303815290604052600190805190602001906103839291906103f9565b50600160405180828054600181600116156101000203166002900480156103e15780601f106103bf5761010080835404028352918201916103e1565b820191906000526020600020905b8154815290600101906020018083116103cd575b50509150506040518091039020600081905550505050565b828054600181600116156101000203166002900490600052602060002090601f016020900481019282601f1061043a57805160ff1916838001178555610468565b82800160010185558215610468579182015b8281111561046757825182559160200191906001019061044c565b5b5090506104759190610479565b5090565b61049b91905b8082111561049757600081600090555060010161047f565b5090565b9056fea165627a7a723058209b974a618657613e24c104e42bed0cad139cd440c5af043207239fcd7aaacc910029",
  "source": "pragma solidity ^0.5.0;\r\n\r\ncontract SignatureTester {\r\n    bytes32 public compiledHash;\r\n    bytes public encoded;\r\n\r\n    constructor() public {}\r\n\r\n    function getHash(address _contractAddress, uint _tokenNumber, string memory _tokenURI) public {\r\n        encoded = abi.encode(_contractAddress, _tokenNumber, _tokenURI);\r\n        compiledHash = keccak256(encoded);\r\n    }\r\n}\r\n",
  "sourcePath": "C:\\Users\\klau\\Documents\\fragment-nft\\contracts\\fragment-claimer\\SignatureTester.sol",
  "compiler": {
    "name": "solc",
    "version": "0.5.0+commit.1d4f565a.Emscripten.clang"
  },
  "schemaVersion": "3.0.23",
  "updatedAt": "2020-03-02T12:26:09.496Z",
  "devdoc": {
    "methods": {}
  },
  "userdoc": {
    "methods": {}
  }
}